{
  "transactions": [
    {
      "hash": "0x42498d322fea2e3a2f2fe6a9d248e2651772cc06d52075358ccf4b0efa183dbf",
      "transactionType": "CALL",
      "contractName": null,
      "contractAddress": "0x8dd803cba342edf404d4d7a08bc4ac40cbc362f2",
      "function": "registerEmitter(uint16,bytes32)",
      "arguments": [
        "56",
        "0x25c6fcc26d9a7e47826a1d48ecf66d2355efff971ce3a8548a6d9107bc833c62"
      ],
      "transaction": {
        "from": "0x2da2d9ccc37da7a4103c67247d51b48ffcbe2296",
        "to": "0x8dd803cba342edf404d4d7a08bc4ac40cbc362f2",
        "gas": "0xea9f",
        "value": "0x0",
        "input": "0xbca4b0fa000000000000000000000000000000000000000000000000000000000000003825c6fcc26d9a7e47826a1d48ecf66d2355efff971ce3a8548a6d9107bc833c62",
        "nonce": "0x697",
        "chainId": "0x66eee"
      },
      "additionalContracts": [],
      "isFixedGasLimit": false
    }
  ],
  "receipts": [
    {
      "status": "0x1",
      "cumulativeGasUsed": "0x12dd7",
      "logs": [
        {
          "address": "0x8dd803cba342edf404d4d7a08bc4ac40cbc362f2",
          "topics": [
            "0xa64dacf418c0eb464d76e762846d4a6b3983d73091e3816581cbbd9d9eb7934d",
            "0x0000000000000000000000000000000000000000000000000000000000000038"
          ],
          "data": "0x25c6fcc26d9a7e47826a1d48ecf66d2355efff971ce3a8548a6d9107bc833c62",
          "blockHash": "0x9c3d3ab12651e62169ebf4f6d7a93078360b80b1c51385e02e7da51ae8098334",
          "blockNumber": "0xd050e28",
          "blockTimestamp": "0x692425ca",
          "transactionHash": "0x42498d322fea2e3a2f2fe6a9d248e2651772cc06d52075358ccf4b0efa183dbf",
          "transactionIndex": "0x2",
          "logIndex": "0x0",
          "removed": false
        }
      ],
      "logsBloom": "0x00000000000200000000000000000000000000000000000000000000000000000000000000000000000020000000000000000000000000000000000000000000000000000000000000000000000000000000000000000000000000000000000000000000000000000000000000000000000000002000000000000000000000000000000000000000000000000004000000000000000000000000000000000000000000000000000000000000000000000000000000000000000000000000000000000000080000000000000000100000000000000000008000000000000000000000000000000000000000000000000004000000000000000200000000000000",
      "type": "0x2",
      "transactionHash": "0x42498d322fea2e3a2f2fe6a9d248e2651772cc06d52075358ccf4b0efa183dbf",
      "transactionIndex": "0x2",
      "blockHash": "0x9c3d3ab12651e62169ebf4f6d7a93078360b80b1c51385e02e7da51ae8098334",
      "blockNumber": "0xd050e28",
      "gasUsed": "0xb2fd",
      "effectiveGasPrice": "0x1312d00",
      "from": "0x2da2d9ccc37da7a4103c67247d51b48ffcbe2296",
      "to": "0x8dd803cba342edf404d4d7a08bc4ac40cbc362f2",
      "contractAddress": null,
      "gasUsedForL1": "0x0",
      "l1BlockNumber": "0x93f298",
      "timeboosted": false
    }
  ],
  "libraries": [],
  "pending": [],
  "returns": {},
  "timestamp": 1763976652,
  "chain": 421614,
  "commit": "4a121fe"
}