{
  "transactions": [
    {
      "hash": "0x97cb42dbc097f7e8e785d4bf2682d9f7a5164b0dee5a6268fbb5b458bb079d28",
      "transactionType": "CALL",
      "contractName": null,
      "contractAddress": "0x3c6a346e40a5c0e9c303e5f0084d304b88dbabc3",
      "function": "registerEmitter(uint16,bytes32)",
      "arguments": [
        "56",
        "0x2bef55af5fb76e973a6ab2e5226ddac9f3fb5149c52e3cb0bf57f0219b1a4f16"
      ],
      "transaction": {
        "from": "0x2da2d9ccc37da7a4103c67247d51b48ffcbe2296",
        "to": "0x3c6a346e40a5c0e9c303e5f0084d304b88dbabc3",
        "gas": "0xea9f",
        "value": "0x0",
        "input": "0xbca4b0fa00000000000000000000000000000000000000000000000000000000000000382bef55af5fb76e973a6ab2e5226ddac9f3fb5149c52e3cb0bf57f0219b1a4f16",
        "nonce": "0x695",
        "chainId": "0x66eee"
      },
      "additionalContracts": [],
      "isFixedGasLimit": false
    }
  ],
  "receipts": [
    {
      "status": "0x1",
      "cumulativeGasUsed": "0xb2fd",
      "logs": [
        {
          "address": "0x3c6a346e40a5c0e9c303e5f0084d304b88dbabc3",
          "topics": [
            "0xa64dacf418c0eb464d76e762846d4a6b3983d73091e3816581cbbd9d9eb7934d",
            "0x0000000000000000000000000000000000000000000000000000000000000038"
          ],
          "data": "0x2bef55af5fb76e973a6ab2e5226ddac9f3fb5149c52e3cb0bf57f0219b1a4f16",
          "blockHash": "0x85a83fc89504fa0d3c3164dee87f960ebbb08d0d7f15082af7f0269183165a25",
          "blockNumber": "0xd04e12a",
          "blockTimestamp": "0x69241a66",
          "transactionHash": "0x97cb42dbc097f7e8e785d4bf2682d9f7a5164b0dee5a6268fbb5b458bb079d28",
          "transactionIndex": "0x1",
          "logIndex": "0x0",
          "removed": false
        }
      ],
      "logsBloom": "0x00000000000200000000000000000000000000000000000000000000000000000000000000000000000020000000000000000000000000000000000000000000000000000000000000000000000000000000000000000000000000000000000000000000000000000000000000000000000000002000000000000000000000000000000000000000000000010000000000000000000000000000000000000000000000000000000000000000000000000000000000000000000000000000000000000000000000000000000000100000000000000000000000800000000000000000000000000000000000000000000004000000000000000200000000000004",
      "type": "0x2",
      "transactionHash": "0x97cb42dbc097f7e8e785d4bf2682d9f7a5164b0dee5a6268fbb5b458bb079d28",
      "transactionIndex": "0x1",
      "blockHash": "0x85a83fc89504fa0d3c3164dee87f960ebbb08d0d7f15082af7f0269183165a25",
      "blockNumber": "0xd04e12a",
      "gasUsed": "0xb2fd",
      "effectiveGasPrice": "0x1312d00",
      "from": "0x2da2d9ccc37da7a4103c67247d51b48ffcbe2296",
      "to": "0x3c6a346e40a5c0e9c303e5f0084d304b88dbabc3",
      "contractAddress": null,
      "gasUsedForL1": "0x0",
      "l1BlockNumber": "0x93f1ae",
      "timeboosted": false
    }
  ],
  "libraries": [],
  "pending": [],
  "returns": {},
  "timestamp": 1763973734,
  "chain": 421614,
  "commit": "4a121fe"
}