{
  "transactions": [
    {
      "hash": "0xd173a3e54a927b100b2a0a109ac0ef114e345a5dadefab241c3a722392b7bedd",
      "transactionType": "CALL",
      "contractName": null,
      "contractAddress": "0x2ec114e8b54dbc73dd7aec890215ba7573188d57",
      "function": "registerEmitter(uint16,bytes32)",
      "arguments": [
        "52",
        "0x1726f3516e30d0ab8dea695bbdc154ad47bd6ccfc433ff5b3cc58bfa2fe8ee19"
      ],
      "transaction": {
        "from": "0x2da2d9ccc37da7a4103c67247d51b48ffcbe2296",
        "to": "0x2ec114e8b54dbc73dd7aec890215ba7573188d57",
        "gas": "0xea9f",
        "value": "0x0",
        "input": "0xbca4b0fa00000000000000000000000000000000000000000000000000000000000000341726f3516e30d0ab8dea695bbdc154ad47bd6ccfc433ff5b3cc58bfa2fe8ee19",
        "nonce": "0x6f5",
        "chainId": "0x66eee"
      },
      "additionalContracts": [],
      "isFixedGasLimit": false
    }
  ],
  "receipts": [
    {
      "status": "0x1",
      "cumulativeGasUsed": "0x220a6",
      "logs": [
        {
          "address": "0x2ec114e8b54dbc73dd7aec890215ba7573188d57",
          "topics": [
            "0xa64dacf418c0eb464d76e762846d4a6b3983d73091e3816581cbbd9d9eb7934d",
            "0x0000000000000000000000000000000000000000000000000000000000000034"
          ],
          "data": "0x1726f3516e30d0ab8dea695bbdc154ad47bd6ccfc433ff5b3cc58bfa2fe8ee19",
          "blockHash": "0xded7d20b4a4d55a8368a34dd968a489ca511c864d4dc98baf9e17f1d837547c9",
          "blockNumber": "0xd1398f9",
          "blockTimestamp": "0x69280474",
          "transactionHash": "0xd173a3e54a927b100b2a0a109ac0ef114e345a5dadefab241c3a722392b7bedd",
          "transactionIndex": "0x3",
          "logIndex": "0x1",
          "removed": false
        }
      ],
      "logsBloom": "0x00000000000200000000000000000000000000000000000000000000000000000000000000000000200000000000000000000004000000000000000000000000000000000000000000000000000000000000000000000000000000000000000000000000000000000000000000000000000000000000000000000000000000000000000000000800000000000000000000000000000000000000000000020000000000000000000000000000000000000000000000000000000000000000000000000000000000000000000000100000000000000000000000000000000000000000020000000000000000000000000004000000000000100000000000000000",
      "type": "0x2",
      "transactionHash": "0xd173a3e54a927b100b2a0a109ac0ef114e345a5dadefab241c3a722392b7bedd",
      "transactionIndex": "0x3",
      "blockHash": "0xded7d20b4a4d55a8368a34dd968a489ca511c864d4dc98baf9e17f1d837547c9",
      "blockNumber": "0xd1398f9",
      "gasUsed": "0xb2fd",
      "effectiveGasPrice": "0x1312d00",
      "from": "0x2da2d9ccc37da7a4103c67247d51b48ffcbe2296",
      "to": "0x2ec114e8b54dbc73dd7aec890215ba7573188d57",
      "contractAddress": null,
      "gasUsedForL1": "0x0",
      "l1BlockNumber": "0x9442b3",
      "timeboosted": false
    }
  ],
  "libraries": [],
  "pending": [],
  "returns": {},
  "timestamp": 1764230263,
  "chain": 421614,
  "commit": "4a121fe"
}