{
  "transactions": [
    {
      "hash": "0xf0dc7d8fcdadc2e84834ffb59d1786d810784af5de85442c73fef8493c26c947",
      "transactionType": "CALL",
      "contractName": null,
      "contractAddress": "0x647daf4072baf6721a2ed6a0a73ccfafeee9f2a6",
      "function": "registerEmitter(uint16,bytes32)",
      "arguments": [
        "56",
        "0x280c0e33e9f36209e686235c4ddfa0d714d553096afbb994254433e5cd1c151c"
      ],
      "transaction": {
        "from": "0x2da2d9ccc37da7a4103c67247d51b48ffcbe2296",
        "to": "0x647daf4072baf6721a2ed6a0a73ccfafeee9f2a6",
        "gas": "0xe364",
        "value": "0x0",
        "input": "0xbca4b0fa0000000000000000000000000000000000000000000000000000000000000038280c0e33e9f36209e686235c4ddfa0d714d553096afbb994254433e5cd1c151c",
        "nonce": "0x11",
        "chainId": "0x66eee"
      },
      "additionalContracts": [],
      "isFixedGasLimit": false
    }
  ],
  "receipts": [
    {
      "status": "0x1",
      "cumulativeGasUsed": "0xa90c1",
      "logs": [],
      "logsBloom": "0x00000000000000000000000000000000000000000000000000000000000000000000000000000000000000000000000000000000000000000000000000000000000000000000000000000000000000000000000000000000000000000000000000000000000000000000000000000000000000000000000000000000000000000000000000000000000000000000000000000000000000000000000000000000000000000000000000000000000000000000000000000000000000000000000000000000000000000000000000000000000000000000000000000000000000000000000000000000000000000000000000000000000000000000000000000000",
      "type": "0x2",
      "transactionHash": "0xf0dc7d8fcdadc2e84834ffb59d1786d810784af5de85442c73fef8493c26c947",
      "transactionIndex": "0x6",
      "blockHash": "0x362dddf0a5ddd8a2206ec301da11756b23c7ab034abb8af528b94ffe0151c720",
      "blockNumber": "0xbe55126",
      "gasUsed": "0xad70",
      "effectiveGasPrice": "0x5f5e100",
      "from": "0x2da2d9ccc37da7a4103c67247d51b48ffcbe2296",
      "to": "0x647daf4072baf6721a2ed6a0a73ccfafeee9f2a6",
      "contractAddress": null,
      "gasUsedForL1": "0x0",
      "l1BlockNumber": "0x8e0f68",
      "timeboosted": false
    }
  ],
  "libraries": [],
  "pending": [],
  "returns": {},
  "timestamp": 1759205445,
  "chain": 421614,
  "commit": "59f73cc"
}