{
  "transactions": [
    {
      "hash": "0x7133cd26be89343aa64937aa0596cac4f4821c8fa59933e2c4e3b2863b7bf9c2",
      "transactionType": "CALL",
      "contractName": null,
      "contractAddress": "0x4b2465630412cd6ac7e8d378c575c0597d8c33a3",
      "function": "registerEmitter(uint16,bytes32)",
      "arguments": [
        "52",
        "0x203ad0c428b9cbff6f5765d1c5bfa20b6a2991b48dc82ee39133bfded6c32d81"
      ],
      "transaction": {
        "from": "0x2da2d9ccc37da7a4103c67247d51b48ffcbe2296",
        "to": "0x4b2465630412cd6ac7e8d378c575c0597d8c33a3",
        "gas": "0xea9f",
        "value": "0x0",
        "input": "0xbca4b0fa0000000000000000000000000000000000000000000000000000000000000034203ad0c428b9cbff6f5765d1c5bfa20b6a2991b48dc82ee39133bfded6c32d81",
        "nonce": "0x6d4",
        "chainId": "0x66eee"
      },
      "additionalContracts": [],
      "isFixedGasLimit": false
    }
  ],
  "receipts": [
    {
      "status": "0x1",
      "cumulativeGasUsed": "0x44f87",
      "logs": [
        {
          "address": "0x4b2465630412cd6ac7e8d378c575c0597d8c33a3",
          "topics": [
            "0xa64dacf418c0eb464d76e762846d4a6b3983d73091e3816581cbbd9d9eb7934d",
            "0x0000000000000000000000000000000000000000000000000000000000000034"
          ],
          "data": "0x203ad0c428b9cbff6f5765d1c5bfa20b6a2991b48dc82ee39133bfded6c32d81",
          "blockHash": "0x036abb89b4cf6f3a58ce9ad5a339d534722127a336d42c70a7edd121262f111f",
          "blockNumber": "0xd0f386f",
          "blockTimestamp": "0x6926d552",
          "transactionHash": "0x7133cd26be89343aa64937aa0596cac4f4821c8fa59933e2c4e3b2863b7bf9c2",
          "transactionIndex": "0x2",
          "logIndex": "0x6",
          "removed": false
        }
      ],
      "logsBloom": "0x00000000000200000000000000000000000000000000000000100000000000000000000000000000200000000000000000000000000000000000000000000000000000000400000000000000000000000000000000000000000000000000000000000000000000000000000000000000000000000000000000000000000000000400000000000000000000000000000000000000000000000000000000020000000000000000000000000000000000000000000000000000000000000000000000000000000000000000000000100000000000000000000000000000000000000000020000000000000000000000000004000000000000000000000000000000",
      "type": "0x2",
      "transactionHash": "0x7133cd26be89343aa64937aa0596cac4f4821c8fa59933e2c4e3b2863b7bf9c2",
      "transactionIndex": "0x2",
      "blockHash": "0x036abb89b4cf6f3a58ce9ad5a339d534722127a336d42c70a7edd121262f111f",
      "blockNumber": "0xd0f386f",
      "gasUsed": "0xb2fd",
      "effectiveGasPrice": "0x1312d00",
      "from": "0x2da2d9ccc37da7a4103c67247d51b48ffcbe2296",
      "to": "0x4b2465630412cd6ac7e8d378c575c0597d8c33a3",
      "contractAddress": null,
      "gasUsedForL1": "0x0",
      "l1BlockNumber": "0x942a32",
      "timeboosted": false
    }
  ],
  "libraries": [],
  "pending": [],
  "returns": {},
  "timestamp": 1764152660,
  "chain": 421614,
  "commit": "4a121fe"
}