{
  "transactions": [
    {
      "hash": "0x61f7e720373f7002b3fe588b0c9731581ea0b482c2bf89ccb8964259ee662f9d",
      "transactionType": "CALL",
      "contractName": null,
      "contractAddress": "0xe9fa4029a6490147d68051016d1c31997ccdc2e8",
      "function": "registerEmitter(uint16,bytes32)",
      "arguments": [
        "52",
        "0x0cc12ce525850fb87d9ab5ae7cfdbc5f0d16d76b95b8e7f0bd053eeaab584379"
      ],
      "transaction": {
        "from": "0x2da2d9ccc37da7a4103c67247d51b48ffcbe2296",
        "to": "0xe9fa4029a6490147d68051016d1c31997ccdc2e8",
        "gas": "0x14416",
        "value": "0x0",
        "input": "0xbca4b0fa00000000000000000000000000000000000000000000000000000000000000340cc12ce525850fb87d9ab5ae7cfdbc5f0d16d76b95b8e7f0bd053eeaab584379",
        "nonce": "0x6ef",
        "chainId": "0x66eee"
      },
      "additionalContracts": [],
      "isFixedGasLimit": false
    }
  ],
  "receipts": [
    {
      "status": "0x1",
      "cumulativeGasUsed": "0x6ff07",
      "logs": [
        {
          "address": "0xe9fa4029a6490147d68051016d1c31997ccdc2e8",
          "topics": [
            "0xa64dacf418c0eb464d76e762846d4a6b3983d73091e3816581cbbd9d9eb7934d",
            "0x0000000000000000000000000000000000000000000000000000000000000034"
          ],
          "data": "0x0cc12ce525850fb87d9ab5ae7cfdbc5f0d16d76b95b8e7f0bd053eeaab584379",
          "blockHash": "0xef33d31808a68e9eb59b5503307428bf9926c5c95d05b797fb0bf6b818ee076e",
          "blockNumber": "0xd132c85",
          "blockTimestamp": "0x6927e4f3",
          "transactionHash": "0x61f7e720373f7002b3fe588b0c9731581ea0b482c2bf89ccb8964259ee662f9d",
          "transactionIndex": "0x2",
          "logIndex": "0x2",
          "removed": false
        }
      ],
      "logsBloom": "0x00000000000200000000000000000000000000000000200000000000000000000000000000000000200000000000000000000000000000000000000000000000000000020000000000000000000000000000000000000000000000000000000000000000000000000000000000000040000000000000000000000000000000000000000000000000000000000000000000000000000000000000000000020000000000000000000000000000000000000000000000000000000000000000000000000000000000000000000000100000000000000000000000000000000000000000020000000000000000000000000004000000000000000000000000000000",
      "type": "0x2",
      "transactionHash": "0x61f7e720373f7002b3fe588b0c9731581ea0b482c2bf89ccb8964259ee662f9d",
      "transactionIndex": "0x2",
      "blockHash": "0xef33d31808a68e9eb59b5503307428bf9926c5c95d05b797fb0bf6b818ee076e",
      "blockNumber": "0xd132c85",
      "gasUsed": "0xe92c",
      "effectiveGasPrice": "0x1312d00",
      "from": "0x2da2d9ccc37da7a4103c67247d51b48ffcbe2296",
      "to": "0xe9fa4029a6490147d68051016d1c31997ccdc2e8",
      "contractAddress": null,
      "gasUsedForL1": "0x362f",
      "l1BlockNumber": "0x94402b",
      "timeboosted": false
    }
  ],
  "libraries": [],
  "pending": [],
  "returns": {},
  "timestamp": 1764222195,
  "chain": 421614,
  "commit": "4a121fe"
}