{
  "transactions": [
    {
      "hash": "0xfe20637ade8eb1d381123e5f3d210add28042c5a761dc9cb34d0c230c3cc36b8",
      "transactionType": "CALL",
      "contractName": null,
      "contractAddress": "0x809eb81ca9d9d17f9d002834068c8a17a1b08e89",
      "function": "registerEmitter(uint16,bytes32)",
      "arguments": [
        "52",
        "0x0b045f4d44dcd6c40be118f01356455e249b4263b8e3d3beff369c5c33d08509"
      ],
      "transaction": {
        "from": "0x2da2d9ccc37da7a4103c67247d51b48ffcbe2296",
        "to": "0x809eb81ca9d9d17f9d002834068c8a17a1b08e89",
        "gas": "0x13573",
        "value": "0x0",
        "input": "0xbca4b0fa00000000000000000000000000000000000000000000000000000000000000340b045f4d44dcd6c40be118f01356455e249b4263b8e3d3beff369c5c33d08509",
        "nonce": "0x6ed",
        "chainId": "0x66eee"
      },
      "additionalContracts": [],
      "isFixedGasLimit": false
    }
  ],
  "receipts": [
    {
      "status": "0x1",
      "cumulativeGasUsed": "0xe01d",
      "logs": [
        {
          "address": "0x809eb81ca9d9d17f9d002834068c8a17a1b08e89",
          "topics": [
            "0xa64dacf418c0eb464d76e762846d4a6b3983d73091e3816581cbbd9d9eb7934d",
            "0x0000000000000000000000000000000000000000000000000000000000000034"
          ],
          "data": "0x0b045f4d44dcd6c40be118f01356455e249b4263b8e3d3beff369c5c33d08509",
          "blockHash": "0x9ad7acaefa642ec487c4c7f20334fcaa8e7ca914fed52965853e7803e413de7a",
          "blockNumber": "0xd1318d5",
          "blockTimestamp": "0x6927df53",
          "transactionHash": "0xfe20637ade8eb1d381123e5f3d210add28042c5a761dc9cb34d0c230c3cc36b8",
          "transactionIndex": "0x1",
          "logIndex": "0x0",
          "removed": false
        }
      ],
      "logsBloom": "0x00000000000200000000000000000008000000000000000000000000000000000000000000000008200000000000000000000000000000000000000000000000000000000000000000000000000000000000000000000000000000000000000000000000000000000000000000000000000000000000000000000000000000000000000000000000000000000000000000000000000000000000000000020000000000000000000000000000000000000000000000000000000000000000000010000000000000000000000000100000000000000000000000000000000000000000020000000000000000000000000004000000000000000000000000000000",
      "type": "0x2",
      "transactionHash": "0xfe20637ade8eb1d381123e5f3d210add28042c5a761dc9cb34d0c230c3cc36b8",
      "transactionIndex": "0x1",
      "blockHash": "0x9ad7acaefa642ec487c4c7f20334fcaa8e7ca914fed52965853e7803e413de7a",
      "blockNumber": "0xd1318d5",
      "gasUsed": "0xe01d",
      "effectiveGasPrice": "0x1312d00",
      "from": "0x2da2d9ccc37da7a4103c67247d51b48ffcbe2296",
      "to": "0x809eb81ca9d9d17f9d002834068c8a17a1b08e89",
      "contractAddress": null,
      "gasUsedForL1": "0x2d20",
      "l1BlockNumber": "0x943fb8",
      "timeboosted": false
    }
  ],
  "libraries": [],
  "pending": [],
  "returns": {},
  "timestamp": 1764220758,
  "chain": 421614,
  "commit": "4a121fe"
}