{
  "transactions": [
    {
      "hash": "0x324e6032c71833d4ec3dd54990d3cfe067ab2be78aad68b7201733173cf09711",
      "transactionType": "CALL",
      "contractName": null,
      "contractAddress": "0xe40b2146e6274b8f5bd5a477139699c76ceae4fb",
      "function": "registerEmitter(uint16,bytes32)",
      "arguments": [
        "52",
        "0x271b12830c08009c1030dcb76204147c66e5bc4185e7dab2c72476abd8ae57c2"
      ],
      "transaction": {
        "from": "0x2da2d9ccc37da7a4103c67247d51b48ffcbe2296",
        "to": "0xe40b2146e6274b8f5bd5a477139699c76ceae4fb",
        "gas": "0xea90",
        "value": "0x0",
        "input": "0xbca4b0fa0000000000000000000000000000000000000000000000000000000000000034271b12830c08009c1030dcb76204147c66e5bc4185e7dab2c72476abd8ae57c2",
        "nonce": "0x6f9",
        "chainId": "0x66eee"
      },
      "additionalContracts": [],
      "isFixedGasLimit": false
    }
  ],
  "receipts": [
    {
      "status": "0x1",
      "cumulativeGasUsed": "0x2baa2",
      "logs": [
        {
          "address": "0xe40b2146e6274b8f5bd5a477139699c76ceae4fb",
          "topics": [
            "0xa64dacf418c0eb464d76e762846d4a6b3983d73091e3816581cbbd9d9eb7934d",
            "0x0000000000000000000000000000000000000000000000000000000000000034"
          ],
          "data": "0x271b12830c08009c1030dcb76204147c66e5bc4185e7dab2c72476abd8ae57c2",
          "blockHash": "0x5602b4cd06960a6b21ec1a75d87b843a9d3003752dbdf04ec415ad9e160fee06",
          "blockNumber": "0xd13b0a5",
          "blockTimestamp": "0x69280b1c",
          "transactionHash": "0x324e6032c71833d4ec3dd54990d3cfe067ab2be78aad68b7201733173cf09711",
          "transactionIndex": "0x3",
          "logIndex": "0x4",
          "removed": false
        }
      ],
      "logsBloom": "0x00000000000200000000000000000000000000000000000000000000000000000000000000001000200000000000000080000000000000000000000000000000000000000000000000000000000000000000000000000000000000000000000000000000000000000000000000000000000000000000000000000000000000000000000000000000000002000000000000000000000000000000000000020000000000000000000000000000000000000000000000000000000000000000000000000000000000000000000000100000000000000000000000000000000000000000020000000000000000000000000004000000000000000000000000000000",
      "type": "0x2",
      "transactionHash": "0x324e6032c71833d4ec3dd54990d3cfe067ab2be78aad68b7201733173cf09711",
      "transactionIndex": "0x3",
      "blockHash": "0x5602b4cd06960a6b21ec1a75d87b843a9d3003752dbdf04ec415ad9e160fee06",
      "blockNumber": "0xd13b0a5",
      "gasUsed": "0xb2f1",
      "effectiveGasPrice": "0x1312d00",
      "from": "0x2da2d9ccc37da7a4103c67247d51b48ffcbe2296",
      "to": "0xe40b2146e6274b8f5bd5a477139699c76ceae4fb",
      "contractAddress": null,
      "gasUsedForL1": "0x0",
      "l1BlockNumber": "0x944338",
      "timeboosted": false
    }
  ],
  "libraries": [],
  "pending": [],
  "returns": {},
  "timestamp": 1764231966,
  "chain": 421614,
  "commit": "4a121fe"
}