{
  "transactions": [
    {
      "hash": "0x6ba61d65873a4874044d2f12e7f5beec01d6267a9a0df1a09a7c1f88888d1e62",
      "transactionType": "CALL",
      "contractName": null,
      "contractAddress": "0x4225095c66b2a1d7a540e00f4a9e65cbc6506aab",
      "function": "registerEmitter(uint16,bytes32)",
      "arguments": [
        "52",
        "0x0b2d0b92ce505739d0041696b71336440f7e0cc44bdd8b3927d54ecfec439cf4"
      ],
      "transaction": {
        "from": "0x2da2d9ccc37da7a4103c67247d51b48ffcbe2296",
        "to": "0x4225095c66b2a1d7a540e00f4a9e65cbc6506aab",
        "gas": "0xeadf",
        "value": "0x0",
        "input": "0xbca4b0fa00000000000000000000000000000000000000000000000000000000000000340b2d0b92ce505739d0041696b71336440f7e0cc44bdd8b3927d54ecfec439cf4",
        "nonce": "0x6f3",
        "chainId": "0x66eee"
      },
      "additionalContracts": [],
      "isFixedGasLimit": false
    }
  ],
  "receipts": [
    {
      "status": "0x1",
      "cumulativeGasUsed": "0xb324",
      "logs": [
        {
          "address": "0x4225095c66b2a1d7a540e00f4a9e65cbc6506aab",
          "topics": [
            "0xa64dacf418c0eb464d76e762846d4a6b3983d73091e3816581cbbd9d9eb7934d",
            "0x0000000000000000000000000000000000000000000000000000000000000034"
          ],
          "data": "0x0b2d0b92ce505739d0041696b71336440f7e0cc44bdd8b3927d54ecfec439cf4",
          "blockHash": "0x6ff11abb664871adb41f51aeec540fcb29443de67737cc4f758927c6eae8a45d",
          "blockNumber": "0xd13862e",
          "blockTimestamp": "0x6927fed5",
          "transactionHash": "0x6ba61d65873a4874044d2f12e7f5beec01d6267a9a0df1a09a7c1f88888d1e62",
          "transactionIndex": "0x1",
          "logIndex": "0x0",
          "removed": false
        }
      ],
      "logsBloom": "0x00000000000200000000000000000000000000000040000000000000000000000000000000000000200000000000000000000000000000000000000000000000000000000000000000000000000000000000000000000000008000000000000000000000000000000000000000000000000000000000000000000000000000000000000000000000000000000000000000000000800000000000000000020000000000000000000000000000000000000000000000000000000000000000000000000000000000000000000000100000000000000000000000000000000000000000020000000000000000000000000004000000000000000000000000000000",
      "type": "0x2",
      "transactionHash": "0x6ba61d65873a4874044d2f12e7f5beec01d6267a9a0df1a09a7c1f88888d1e62",
      "transactionIndex": "0x1",
      "blockHash": "0x6ff11abb664871adb41f51aeec540fcb29443de67737cc4f758927c6eae8a45d",
      "blockNumber": "0xd13862e",
      "gasUsed": "0xb324",
      "effectiveGasPrice": "0x1312d00",
      "from": "0x2da2d9ccc37da7a4103c67247d51b48ffcbe2296",
      "to": "0x4225095c66b2a1d7a540e00f4a9e65cbc6506aab",
      "contractAddress": null,
      "gasUsedForL1": "0x27",
      "l1BlockNumber": "0x944242",
      "timeboosted": false
    }
  ],
  "libraries": [],
  "pending": [],
  "returns": {},
  "timestamp": 1764228824,
  "chain": 421614,
  "commit": "4a121fe"
}