{
  "transactions": [
    {
      "hash": "0x0dc5d4caf3fe3f1b8285ad560640b8e1b482be2dd3caae1510755a1c63452fc6",
      "transactionType": "CALL",
      "contractName": null,
      "contractAddress": "0x88bbf76f58acb0d76d3d6b9ba929a691b24194b6",
      "function": "registerEmitter(uint16,bytes32)",
      "arguments": [
        "52",
        "0x29c4bcf13e59d88e3649cb9ea0a2ba848ec17ea6becab7dfa72e864a8153e45a"
      ],
      "transaction": {
        "from": "0x2da2d9ccc37da7a4103c67247d51b48ffcbe2296",
        "to": "0x88bbf76f58acb0d76d3d6b9ba929a691b24194b6",
        "gas": "0x14a9f",
        "value": "0x0",
        "input": "0xbca4b0fa000000000000000000000000000000000000000000000000000000000000003429c4bcf13e59d88e3649cb9ea0a2ba848ec17ea6becab7dfa72e864a8153e45a",
        "nonce": "0x6ea",
        "chainId": "0x66eee"
      },
      "additionalContracts": [],
      "isFixedGasLimit": false
    }
  ],
  "receipts": [
    {
      "status": "0x1",
      "cumulativeGasUsed": "0x5a656",
      "logs": [
        {
          "address": "0x88bbf76f58acb0d76d3d6b9ba929a691b24194b6",
          "topics": [
            "0xa64dacf418c0eb464d76e762846d4a6b3983d73091e3816581cbbd9d9eb7934d",
            "0x0000000000000000000000000000000000000000000000000000000000000034"
          ],
          "data": "0x29c4bcf13e59d88e3649cb9ea0a2ba848ec17ea6becab7dfa72e864a8153e45a",
          "blockHash": "0xb5197bb2f92b0f3acc7c396e2677196a4943c21589364a4407b561006dc020e5",
          "blockNumber": "0xd130df9",
          "blockTimestamp": "0x6927dc3c",
          "transactionHash": "0x0dc5d4caf3fe3f1b8285ad560640b8e1b482be2dd3caae1510755a1c63452fc6",
          "transactionIndex": "0x2",
          "logIndex": "0x6",
          "removed": false
        }
      ],
      "logsBloom": "0x00000000000200000000000000000000000000000000000010000000000000000000000000000000200000000000000000000000000000000000000000000000000000000000000000000000000000000000000000000000000000000000000000000000002000000000000000000000000000100000000000000000000000000000000000000000000000000000000000000000000000000000000000020000000000000000000000000000000000000000000000000000000000000000000000000000000000000000000000100000000000000000000000000000000000000000020000000000000000000000000004000000000000000000000000000000",
      "type": "0x2",
      "transactionHash": "0x0dc5d4caf3fe3f1b8285ad560640b8e1b482be2dd3caae1510755a1c63452fc6",
      "transactionIndex": "0x2",
      "blockHash": "0xb5197bb2f92b0f3acc7c396e2677196a4943c21589364a4407b561006dc020e5",
      "blockNumber": "0xd130df9",
      "gasUsed": "0xed39",
      "effectiveGasPrice": "0x1312d00",
      "from": "0x2da2d9ccc37da7a4103c67247d51b48ffcbe2296",
      "to": "0x88bbf76f58acb0d76d3d6b9ba929a691b24194b6",
      "contractAddress": null,
      "gasUsedForL1": "0x3a3c",
      "l1BlockNumber": "0x943f78",
      "timeboosted": false
    }
  ],
  "libraries": [],
  "pending": [],
  "returns": {},
  "timestamp": 1764219965,
  "chain": 421614,
  "commit": "4a121fe"
}