{
  "transactions": [
    {
      "hash": "0xc49660a95a9294da9301476efa5093e65bcf068e00bca84c04849b1a690584af",
      "transactionType": "CALL",
      "contractName": null,
      "contractAddress": "0x10877476f410de48d209512691c895b47cc17c45",
      "function": "registerEmitter(uint16,bytes32)",
      "arguments": [
        "52",
        "0x1260b4b116060ecbcd75f39ebd64650e253511d694295b54ca9b2937c3d831ab"
      ],
      "transaction": {
        "from": "0x2da2d9ccc37da7a4103c67247d51b48ffcbe2296",
        "to": "0x10877476f410de48d209512691c895b47cc17c45",
        "gas": "0xf773",
        "value": "0x0",
        "input": "0xbca4b0fa00000000000000000000000000000000000000000000000000000000000000341260b4b116060ecbcd75f39ebd64650e253511d694295b54ca9b2937c3d831ab",
        "nonce": "0x6f1",
        "chainId": "0x66eee"
      },
      "additionalContracts": [],
      "isFixedGasLimit": false
    }
  ],
  "receipts": [
    {
      "status": "0x1",
      "cumulativeGasUsed": "0x1eb5e",
      "logs": [
        {
          "address": "0x10877476f410de48d209512691c895b47cc17c45",
          "topics": [
            "0xa64dacf418c0eb464d76e762846d4a6b3983d73091e3816581cbbd9d9eb7934d",
            "0x0000000000000000000000000000000000000000000000000000000000000034"
          ],
          "data": "0x1260b4b116060ecbcd75f39ebd64650e253511d694295b54ca9b2937c3d831ab",
          "blockHash": "0x08bc4cfe195724e912dd9d3cc5ad074c39e3f2352c1ed158e24a253457848177",
          "blockNumber": "0xd1375f2",
          "blockTimestamp": "0x6927fa0d",
          "transactionHash": "0xc49660a95a9294da9301476efa5093e65bcf068e00bca84c04849b1a690584af",
          "transactionIndex": "0x2",
          "logIndex": "0x0",
          "removed": false
        }
      ],
      "logsBloom": "0x00000000010200000000000000000000000000000000000000000000000000000000080000000000200000000000000000000000000000000000000000000000000000000000000000000000000000000000000000000000000000000000000000000000000000000000000000000000000000000000000000000000800000000000000000000000000000000000000000000000000000000000000000020000000000000000000000000000000000000000000000000000000000000000000000000000000000000000000000100000000000000000000000000000000000000000020000000000000000000000000004000000000000000000000000000000",
      "type": "0x2",
      "transactionHash": "0xc49660a95a9294da9301476efa5093e65bcf068e00bca84c04849b1a690584af",
      "transactionIndex": "0x2",
      "blockHash": "0x08bc4cfe195724e912dd9d3cc5ad074c39e3f2352c1ed158e24a253457848177",
      "blockNumber": "0xd1375f2",
      "gasUsed": "0xbae7",
      "effectiveGasPrice": "0x1312d00",
      "from": "0x2da2d9ccc37da7a4103c67247d51b48ffcbe2296",
      "to": "0x10877476f410de48d209512691c895b47cc17c45",
      "contractAddress": null,
      "gasUsedForL1": "0x7ea",
      "l1BlockNumber": "0x9441e0",
      "timeboosted": false
    }
  ],
  "libraries": [],
  "pending": [],
  "returns": {},
  "timestamp": 1764227597,
  "chain": 421614,
  "commit": "4a121fe"
}