{
  "transactions": [
    {
      "hash": "0xced258009e6ba1b8a8b16497e232c120a3dd35246e9648f5f7de5404e8e2614e",
      "transactionType": "CALL",
      "contractName": null,
      "contractAddress": "0x844acca45e5da5f27c07ab11a20e5162370327c5",
      "function": "registerEmitter(uint16,bytes32)",
      "arguments": [
        "52",
        "0x0892323055fb245fea3f942817677bd9541e6ecd203d7e650187b3453bb9d3c9"
      ],
      "transaction": {
        "from": "0x2da2d9ccc37da7a4103c67247d51b48ffcbe2296",
        "to": "0x844acca45e5da5f27c07ab11a20e5162370327c5",
        "gas": "0xea9f",
        "value": "0x0",
        "input": "0xbca4b0fa00000000000000000000000000000000000000000000000000000000000000340892323055fb245fea3f942817677bd9541e6ecd203d7e650187b3453bb9d3c9",
        "nonce": "0x6f7",
        "chainId": "0x66eee"
      },
      "additionalContracts": [],
      "isFixedGasLimit": false
    }
  ],
  "receipts": [
    {
      "status": "0x1",
      "cumulativeGasUsed": "0xb2fd",
      "logs": [
        {
          "address": "0x844acca45e5da5f27c07ab11a20e5162370327c5",
          "topics": [
            "0xa64dacf418c0eb464d76e762846d4a6b3983d73091e3816581cbbd9d9eb7934d",
            "0x0000000000000000000000000000000000000000000000000000000000000034"
          ],
          "data": "0x0892323055fb245fea3f942817677bd9541e6ecd203d7e650187b3453bb9d3c9",
          "blockHash": "0x44ee8780b442d6881d841394914f81268d3fc792c42df65264e08c1e425da4b0",
          "blockNumber": "0xd13a181",
          "blockTimestamp": "0x692806d7",
          "transactionHash": "0xced258009e6ba1b8a8b16497e232c120a3dd35246e9648f5f7de5404e8e2614e",
          "transactionIndex": "0x1",
          "logIndex": "0x0",
          "removed": false
        }
      ],
      "logsBloom": "0x00000000000200000000000000000000000000000000000000000000000000000000000000000000200000000000000000000000000000000000000000000000000000000000000000000000000000000000000000000000000000000000000000000000000000000000000000000000000000000000000000000000000000000000000000000010000000000000000000000000000000000000000000020000000000000000000000000000000000000000000000000000000000000000000000000000000000000000000000100000000000000000200000000000000000000000020000000000000000080000000004000000000000000000000000000000",
      "type": "0x2",
      "transactionHash": "0xced258009e6ba1b8a8b16497e232c120a3dd35246e9648f5f7de5404e8e2614e",
      "transactionIndex": "0x1",
      "blockHash": "0x44ee8780b442d6881d841394914f81268d3fc792c42df65264e08c1e425da4b0",
      "blockNumber": "0xd13a181",
      "gasUsed": "0xb2fd",
      "effectiveGasPrice": "0x1312d00",
      "from": "0x2da2d9ccc37da7a4103c67247d51b48ffcbe2296",
      "to": "0x844acca45e5da5f27c07ab11a20e5162370327c5",
      "contractAddress": null,
      "gasUsedForL1": "0x0",
      "l1BlockNumber": "0x9442e3",
      "timeboosted": false
    }
  ],
  "libraries": [],
  "pending": [],
  "returns": {},
  "timestamp": 1764230871,
  "chain": 421614,
  "commit": "4a121fe"
}