{
  "transactions": [
    {
      "hash": "0xc9d2b662b1d692eb46bb0d946ba346f93c02e39a13482368cc760146a10d4b14",
      "transactionType": "CALL",
      "contractName": null,
      "contractAddress": "0xa662dbd2605ed80cd2596594c0aec4ea450396d0",
      "function": "registerEmitter(uint16,bytes32)",
      "arguments": [
        "52",
        "0x2e27ddd6bd253a0332873ae599c85ad290c96e4c95ed29d27a77f5b7e14fdf65"
      ],
      "transaction": {
        "from": "0x2da2d9ccc37da7a4103c67247d51b48ffcbe2296",
        "to": "0xa662dbd2605ed80cd2596594c0aec4ea450396d0",
        "gas": "0xea9f",
        "value": "0x0",
        "input": "0xbca4b0fa00000000000000000000000000000000000000000000000000000000000000342e27ddd6bd253a0332873ae599c85ad290c96e4c95ed29d27a77f5b7e14fdf65",
        "nonce": "0x7bd",
        "chainId": "0x66eee"
      },
      "additionalContracts": [],
      "isFixedGasLimit": false
    }
  ],
  "receipts": [
    {
      "status": "0x1",
      "cumulativeGasUsed": "0xb6e5c",
      "logs": [
        {
          "address": "0xa662dbd2605ed80cd2596594c0aec4ea450396d0",
          "topics": [
            "0xa64dacf418c0eb464d76e762846d4a6b3983d73091e3816581cbbd9d9eb7934d",
            "0x0000000000000000000000000000000000000000000000000000000000000034"
          ],
          "data": "0x2e27ddd6bd253a0332873ae599c85ad290c96e4c95ed29d27a77f5b7e14fdf65",
          "blockHash": "0x2fe5e2b6d2d5d877cd86f8e6c6eac36ca3b216b605c7fad8b7f805803e5693c9",
          "blockNumber": "0xd17fc42",
          "blockTimestamp": "0x69292a35",
          "transactionHash": "0xc9d2b662b1d692eb46bb0d946ba346f93c02e39a13482368cc760146a10d4b14",
          "transactionIndex": "0x7",
          "logIndex": "0x1c",
          "removed": false
        }
      ],
      "logsBloom": "0x00000200000200000000000000000000000000000000000000000000000000000000000000000000200000000000000000000000000000000000000000000000000000000000000000000000000000000000000000000000000000000000000000000000000000000000000000000000000000000000000000000000000000000000000000000000000000000000000000000000000000000000000000020000000000000000000000000000008000000000000000000000000000000000000000000000020000000000000000100000000000000000000000000000000000000000020000000000000000000000000004000000000000000000000000000000",
      "type": "0x2",
      "transactionHash": "0xc9d2b662b1d692eb46bb0d946ba346f93c02e39a13482368cc760146a10d4b14",
      "transactionIndex": "0x7",
      "blockHash": "0x2fe5e2b6d2d5d877cd86f8e6c6eac36ca3b216b605c7fad8b7f805803e5693c9",
      "blockNumber": "0xd17fc42",
      "gasUsed": "0xb2fd",
      "effectiveGasPrice": "0x1312d00",
      "from": "0x2da2d9ccc37da7a4103c67247d51b48ffcbe2296",
      "to": "0xa662dbd2605ed80cd2596594c0aec4ea450396d0",
      "contractAddress": null,
      "gasUsedForL1": "0x0",
      "l1BlockNumber": "0x94593b",
      "timeboosted": false
    }
  ],
  "libraries": [],
  "pending": [],
  "returns": {},
  "timestamp": 1764305464,
  "chain": 421614,
  "commit": "4a121fe"
}