{
  "transactions": [
    {
      "hash": "0x424f8b1baa6a83ffec58cb76caeb1c1dc58107cc25a401d22ba799b0dc10346d",
      "transactionType": "CALL",
      "contractName": null,
      "contractAddress": "0x8866513733b7d2eeee6daff829354c6928409ea9",
      "function": "registerEmitter(uint16,bytes32)",
      "arguments": [
        "52",
        "0x2bd6d43b49e9c0774af7867a318c76f23538b90f214876d667be704d31eb5bba"
      ],
      "transaction": {
        "from": "0x2da2d9ccc37da7a4103c67247d51b48ffcbe2296",
        "to": "0x8866513733b7d2eeee6daff829354c6928409ea9",
        "gas": "0xea9f",
        "value": "0x0",
        "input": "0xbca4b0fa00000000000000000000000000000000000000000000000000000000000000342bd6d43b49e9c0774af7867a318c76f23538b90f214876d667be704d31eb5bba",
        "nonce": "0x7d5",
        "chainId": "0x66eee"
      },
      "additionalContracts": [],
      "isFixedGasLimit": false
    }
  ],
  "receipts": [
    {
      "status": "0x1",
      "cumulativeGasUsed": "0xb2fd",
      "logs": [
        {
          "address": "0x8866513733b7d2eeee6daff829354c6928409ea9",
          "topics": [
            "0xa64dacf418c0eb464d76e762846d4a6b3983d73091e3816581cbbd9d9eb7934d",
            "0x0000000000000000000000000000000000000000000000000000000000000034"
          ],
          "data": "0x2bd6d43b49e9c0774af7867a318c76f23538b90f214876d667be704d31eb5bba",
          "blockHash": "0x3532bf883aaa2f7bcd736a36fa9ff13869a2ec8095fb651b2ed4dc098d2b04d7",
          "blockNumber": "0xd18a5fd",
          "blockTimestamp": "0x692955cf",
          "transactionHash": "0x424f8b1baa6a83ffec58cb76caeb1c1dc58107cc25a401d22ba799b0dc10346d",
          "transactionIndex": "0x1",
          "logIndex": "0x0",
          "removed": false
        }
      ],
      "logsBloom": "0x00000000000200000000000000000000000000000000000000000000000000000000000000000000200000000000000000000000000000000000000000000000000000000000000000000000000000000000000000000000000000000000000000000000000000000000000000000000000000000000000000000000000000000000000000000000000000000000000000000000000000000000000000020000000000000000000000000000000000000000000000000000000000000000000000000000000000000000000004100000000000000000000000000000000001000000020000020000000000000000000004000000000000000000000000000000",
      "type": "0x2",
      "transactionHash": "0x424f8b1baa6a83ffec58cb76caeb1c1dc58107cc25a401d22ba799b0dc10346d",
      "transactionIndex": "0x1",
      "blockHash": "0x3532bf883aaa2f7bcd736a36fa9ff13869a2ec8095fb651b2ed4dc098d2b04d7",
      "blockNumber": "0xd18a5fd",
      "gasUsed": "0xb2fd",
      "effectiveGasPrice": "0x1312d00",
      "from": "0x2da2d9ccc37da7a4103c67247d51b48ffcbe2296",
      "to": "0x8866513733b7d2eeee6daff829354c6928409ea9",
      "contractAddress": null,
      "gasUsedForL1": "0x0",
      "l1BlockNumber": "0x945c81",
      "timeboosted": false
    }
  ],
  "libraries": [],
  "pending": [],
  "returns": {},
  "timestamp": 1764316625,
  "chain": 421614,
  "commit": "4a121fe"
}