{
  "transactions": [
    {
      "hash": "0xda226c929d3470188fc14d1bfbe241f26a95a561dce3372d05385395e27c6566",
      "transactionType": "CALL",
      "contractName": null,
      "contractAddress": "0xf36aaee83f01aa9d115be47447fab0b73651bc7e",
      "function": "registerEmitter(uint16,bytes32)",
      "arguments": [
        "52",
        "0x0c505e99b76eaa43907a8b0683cb3cf8a78f4bd37f29df88fdc200fc74758cc2"
      ],
      "transaction": {
        "from": "0x2da2d9ccc37da7a4103c67247d51b48ffcbe2296",
        "to": "0xf36aaee83f01aa9d115be47447fab0b73651bc7e",
        "gas": "0xea90",
        "value": "0x0",
        "input": "0xbca4b0fa00000000000000000000000000000000000000000000000000000000000000340c505e99b76eaa43907a8b0683cb3cf8a78f4bd37f29df88fdc200fc74758cc2",
        "nonce": "0x7bf",
        "chainId": "0x66eee"
      },
      "additionalContracts": [],
      "isFixedGasLimit": false
    }
  ],
  "receipts": [
    {
      "status": "0x1",
      "cumulativeGasUsed": "0xb2f1",
      "logs": [
        {
          "address": "0xf36aaee83f01aa9d115be47447fab0b73651bc7e",
          "topics": [
            "0xa64dacf418c0eb464d76e762846d4a6b3983d73091e3816581cbbd9d9eb7934d",
            "0x0000000000000000000000000000000000000000000000000000000000000034"
          ],
          "data": "0x0c505e99b76eaa43907a8b0683cb3cf8a78f4bd37f29df88fdc200fc74758cc2",
          "blockHash": "0x905a87099fdcd2929de52a6dcc79d4912fbc103682dce3af03d0c3027a241b21",
          "blockNumber": "0xd186507",
          "blockTimestamp": "0x6929450e",
          "transactionHash": "0xda226c929d3470188fc14d1bfbe241f26a95a561dce3372d05385395e27c6566",
          "transactionIndex": "0x1",
          "logIndex": "0x0",
          "removed": false
        }
      ],
      "logsBloom": "0x00000000000200000000000000000080000000000000000000000000000000000000000000000000200000000000000000000000000000000000000000000000000000000000000000000000000000000000000000000000000000000000000000000000000000000000000000000000000000000000000000000000000000000000000000000000000000000000000000000000000000000000000000020000000000000000000000000000000000000000000000000000000000000000000000000000000000000000000000100000000000000000000000000000000000000000020000000400000000000000000004000000000000000200000000000000",
      "type": "0x2",
      "transactionHash": "0xda226c929d3470188fc14d1bfbe241f26a95a561dce3372d05385395e27c6566",
      "transactionIndex": "0x1",
      "blockHash": "0x905a87099fdcd2929de52a6dcc79d4912fbc103682dce3af03d0c3027a241b21",
      "blockNumber": "0xd186507",
      "gasUsed": "0xb2f1",
      "effectiveGasPrice": "0x1312d00",
      "from": "0x2da2d9ccc37da7a4103c67247d51b48ffcbe2296",
      "to": "0xf36aaee83f01aa9d115be47447fab0b73651bc7e",
      "contractAddress": null,
      "gasUsedForL1": "0x0",
      "l1BlockNumber": "0x945b41",
      "timeboosted": false
    }
  ],
  "libraries": [],
  "pending": [],
  "returns": {},
  "timestamp": 1764312337,
  "chain": 421614,
  "commit": "4a121fe"
}