{
  "transactions": [
    {
      "hash": "0x173d8cb73f97d1ceccf1157c5aee9fa1bae0ed93a08aa6cf59fc0a2da7d2f37d",
      "transactionType": "CALL",
      "contractName": null,
      "contractAddress": "0x8dd803cba342edf404d4d7a08bc4ac40cbc362f2",
      "function": "registerEmitter(uint16,bytes32)",
      "arguments": [
        "52",
        "0x25c6fcc26d9a7e47826a1d48ecf66d2355efff971ce3a8548a6d9107bc833c62"
      ],
      "transaction": {
        "from": "0x2da2d9ccc37da7a4103c67247d51b48ffcbe2296",
        "to": "0x8dd803cba342edf404d4d7a08bc4ac40cbc362f2",
        "gas": "0xea9f",
        "value": "0x0",
        "input": "0xbca4b0fa000000000000000000000000000000000000000000000000000000000000003425c6fcc26d9a7e47826a1d48ecf66d2355efff971ce3a8548a6d9107bc833c62",
        "nonce": "0x698",
        "chainId": "0x66eee"
      },
      "additionalContracts": [],
      "isFixedGasLimit": false
    }
  ],
  "receipts": [
    {
      "status": "0x1",
      "cumulativeGasUsed": "0x17fd36",
      "logs": [
        {
          "address": "0x8dd803cba342edf404d4d7a08bc4ac40cbc362f2",
          "topics": [
            "0xa64dacf418c0eb464d76e762846d4a6b3983d73091e3816581cbbd9d9eb7934d",
            "0x0000000000000000000000000000000000000000000000000000000000000034"
          ],
          "data": "0x25c6fcc26d9a7e47826a1d48ecf66d2355efff971ce3a8548a6d9107bc833c62",
          "blockHash": "0x35aa9d0a06d292149dbb918ebb040b64832f5f6b2e3bed235d98fbc33c7d6f05",
          "blockNumber": "0xd055614",
          "blockTimestamp": "0x69243813",
          "transactionHash": "0x173d8cb73f97d1ceccf1157c5aee9fa1bae0ed93a08aa6cf59fc0a2da7d2f37d",
          "transactionIndex": "0x3",
          "logIndex": "0x17",
          "removed": false
        }
      ],
      "logsBloom": "0x00000000000200000000000000000000000000000000000000000000000000000000000000000000200000000000000000000000000000000000000000000000000000000000000000000000000000000000000000000000000000000000000000000000000000000000000000000000000000000000000000000000000000000000000000000000000000000004000000000000000000000000000000020000000000000000000000000000000000000000000000000000000000000000000000000000080000000000000000100000000000000000008000000000000000000000020000000000000000000000000004000000000000000000000000000000",
      "type": "0x2",
      "transactionHash": "0x173d8cb73f97d1ceccf1157c5aee9fa1bae0ed93a08aa6cf59fc0a2da7d2f37d",
      "transactionIndex": "0x3",
      "blockHash": "0x35aa9d0a06d292149dbb918ebb040b64832f5f6b2e3bed235d98fbc33c7d6f05",
      "blockNumber": "0xd055614",
      "gasUsed": "0xb2fd",
      "effectiveGasPrice": "0x1312d00",
      "from": "0x2da2d9ccc37da7a4103c67247d51b48ffcbe2296",
      "to": "0x8dd803cba342edf404d4d7a08bc4ac40cbc362f2",
      "contractAddress": null,
      "gasUsedForL1": "0x0",
      "l1BlockNumber": "0x93f412",
      "timeboosted": false
    }
  ],
  "libraries": [],
  "pending": [],
  "returns": {},
  "timestamp": 1763981334,
  "chain": 421614,
  "commit": "4a121fe"
}