{
  "transactions": [
    {
      "hash": "0x7ac9e08cf92f63a0e6660675bd4cd906e66de321fef1ac371a5ed7e00facfcd6",
      "transactionType": "CALL",
      "contractName": null,
      "contractAddress": "0x0c96ac4cb9582f18e6a4dc3625fc0bb4762b1b9a",
      "function": "registerEmitter(uint16,bytes32)",
      "arguments": [
        "52",
        "0x2382fe7fc1a7ecafb178709e915d6fb5c45959283c0dcfceceb12addf74e47bd"
      ],
      "transaction": {
        "from": "0x2da2d9ccc37da7a4103c67247d51b48ffcbe2296",
        "to": "0x0c96ac4cb9582f18e6a4dc3625fc0bb4762b1b9a",
        "gas": "0xea9f",
        "value": "0x0",
        "input": "0xbca4b0fa00000000000000000000000000000000000000000000000000000000000000342382fe7fc1a7ecafb178709e915d6fb5c45959283c0dcfceceb12addf74e47bd",
        "nonce": "0x6fd",
        "chainId": "0x66eee"
      },
      "additionalContracts": [],
      "isFixedGasLimit": false
    }
  ],
  "receipts": [
    {
      "status": "0x1",
      "cumulativeGasUsed": "0x24a00",
      "logs": [
        {
          "address": "0x0c96ac4cb9582f18e6a4dc3625fc0bb4762b1b9a",
          "topics": [
            "0xa64dacf418c0eb464d76e762846d4a6b3983d73091e3816581cbbd9d9eb7934d",
            "0x0000000000000000000000000000000000000000000000000000000000000034"
          ],
          "data": "0x2382fe7fc1a7ecafb178709e915d6fb5c45959283c0dcfceceb12addf74e47bd",
          "blockHash": "0x36129b3d11215c7a5216edcf133a9a1391ea75a36f539adc8db5c183bfb73dae",
          "blockNumber": "0xd13d882",
          "blockTimestamp": "0x69281673",
          "transactionHash": "0x7ac9e08cf92f63a0e6660675bd4cd906e66de321fef1ac371a5ed7e00facfcd6",
          "transactionIndex": "0x2",
          "logIndex": "0x1",
          "removed": false
        }
      ],
      "logsBloom": "0x00000000000200000000000000000000000000000000000000000000008000000000000000000000200000000000000000000000000000000000000000000000000000000000000000010000000000000000000000000000000000000000000000000000000000000000000000000000000000000000000000000000000000000000000000000000000000000000000000000000000000000000000000020004000000000000000000000000000000000000000000000000000000000000000000000000000000000000000000100000000000000000000000000000000000000000020000000000000000000000000004000000000000000000000000000000",
      "type": "0x2",
      "transactionHash": "0x7ac9e08cf92f63a0e6660675bd4cd906e66de321fef1ac371a5ed7e00facfcd6",
      "transactionIndex": "0x2",
      "blockHash": "0x36129b3d11215c7a5216edcf133a9a1391ea75a36f539adc8db5c183bfb73dae",
      "blockNumber": "0xd13d882",
      "gasUsed": "0xb2fd",
      "effectiveGasPrice": "0x1312d00",
      "from": "0x2da2d9ccc37da7a4103c67247d51b48ffcbe2296",
      "to": "0x0c96ac4cb9582f18e6a4dc3625fc0bb4762b1b9a",
      "contractAddress": null,
      "gasUsedForL1": "0x0",
      "l1BlockNumber": "0x944424",
      "timeboosted": false
    }
  ],
  "libraries": [],
  "pending": [],
  "returns": {},
  "timestamp": 1764234868,
  "chain": 421614,
  "commit": "4a121fe"
}