{
  "transactions": [
    {
      "hash": "0x985028ea1954ae8e58941eb2a43580a74fea328b995263b900c5774fe2921b8e",
      "transactionType": "CALL",
      "contractName": null,
      "contractAddress": "0x141a910969f08299812c8bb945c7582c2d05ec12",
      "function": "registerEmitter(uint16,bytes32)",
      "arguments": [
        "56",
        "0x280c0e33e9f36209e686235c4ddfa0d714d553096afbb994254433e5cd1c151c"
      ],
      "transaction": {
        "from": "0x2da2d9ccc37da7a4103c67247d51b48ffcbe2296",
        "to": "0x141a910969f08299812c8bb945c7582c2d05ec12",
        "gas": "0xe364",
        "value": "0x0",
        "input": "0xbca4b0fa0000000000000000000000000000000000000000000000000000000000000038280c0e33e9f36209e686235c4ddfa0d714d553096afbb994254433e5cd1c151c",
        "nonce": "0xe",
        "chainId": "0x66eee"
      },
      "additionalContracts": [],
      "isFixedGasLimit": false
    }
  ],
  "receipts": [
    {
      "status": "0x1",
      "cumulativeGasUsed": "0x2684b",
      "logs": [],
      "logsBloom": "0x00000000000000000000000000000000000000000000000000000000000000000000000000000000000000000000000000000000000000000000000000000000000000000000000000000000000000000000000000000000000000000000000000000000000000000000000000000000000000000000000000000000000000000000000000000000000000000000000000000000000000000000000000000000000000000000000000000000000000000000000000000000000000000000000000000000000000000000000000000000000000000000000000000000000000000000000000000000000000000000000000000000000000000000000000000000",
      "type": "0x2",
      "transactionHash": "0x985028ea1954ae8e58941eb2a43580a74fea328b995263b900c5774fe2921b8e",
      "transactionIndex": "0x3",
      "blockHash": "0xe0d7550c8cced06afeca71649d12b1ba9291ddfc021930a43eef78e90e438b39",
      "blockNumber": "0xbe54fe9",
      "gasUsed": "0xad70",
      "effectiveGasPrice": "0x5f5e100",
      "from": "0x2da2d9ccc37da7a4103c67247d51b48ffcbe2296",
      "to": "0x141a910969f08299812c8bb945c7582c2d05ec12",
      "contractAddress": null,
      "gasUsedForL1": "0x0",
      "l1BlockNumber": "0x8e0f62",
      "timeboosted": false
    }
  ],
  "libraries": [],
  "pending": [],
  "returns": {},
  "timestamp": 1759205367,
  "chain": 421614,
  "commit": "59f73cc"
}