{
  "transactions": [
    {
      "hash": "0x3b8c48aa9577d0c7309c34009ce4429f084551eb72657adc6ebceab36b92ae49",
      "transactionType": "CALL",
      "contractName": null,
      "contractAddress": "0x626ea5383e40d743dfddc94eb85d7bd6ddffe3eb",
      "function": "registerEmitter(uint16,bytes32)",
      "arguments": [
        "52",
        "0x031063a58bb3f1f0c5d70cacbcfc122205c1882155ad722715d90a699046ea50"
      ],
      "transaction": {
        "from": "0x2da2d9ccc37da7a4103c67247d51b48ffcbe2296",
        "to": "0x626ea5383e40d743dfddc94eb85d7bd6ddffe3eb",
        "gas": "0xea9f",
        "value": "0x0",
        "input": "0xbca4b0fa0000000000000000000000000000000000000000000000000000000000000034031063a58bb3f1f0c5d70cacbcfc122205c1882155ad722715d90a699046ea50",
        "nonce": "0x80f",
        "chainId": "0x66eee"
      },
      "additionalContracts": [],
      "isFixedGasLimit": false
    }
  ],
  "receipts": [
    {
      "status": "0x1",
      "cumulativeGasUsed": "0xb2fd",
      "logs": [
        {
          "address": "0x626ea5383e40d743dfddc94eb85d7bd6ddffe3eb",
          "topics": [
            "0xa64dacf418c0eb464d76e762846d4a6b3983d73091e3816581cbbd9d9eb7934d",
            "0x0000000000000000000000000000000000000000000000000000000000000034"
          ],
          "data": "0x031063a58bb3f1f0c5d70cacbcfc122205c1882155ad722715d90a699046ea50",
          "blockHash": "0xaa7990ac89a943855e58a77294c72063c7e72fa6298065f8179eee0eac8c11fc",
          "blockNumber": "0xd18df05",
          "blockTimestamp": "0x69296492",
          "transactionHash": "0x3b8c48aa9577d0c7309c34009ce4429f084551eb72657adc6ebceab36b92ae49",
          "transactionIndex": "0x1",
          "logIndex": "0x0",
          "removed": false
        }
      ],
      "logsBloom": "0x00000000000200000000000000000000000000000000000000000000000000000000000000000000200000000000000000000000000000000000000000000000000000100000000000000000000000000000000000000000000000000000000000000000000000000000000000000000000000000000000000000000000000000000000800000000000000000000000000000000000000000200000000020000000000000000000000000000000000000000000000000000000000000000000000000000000000000000000000100000000000000000000000000000000000000000020000000000000000000000000004000000000000000000000000000000",
      "type": "0x2",
      "transactionHash": "0x3b8c48aa9577d0c7309c34009ce4429f084551eb72657adc6ebceab36b92ae49",
      "transactionIndex": "0x1",
      "blockHash": "0xaa7990ac89a943855e58a77294c72063c7e72fa6298065f8179eee0eac8c11fc",
      "blockNumber": "0xd18df05",
      "gasUsed": "0xb2fd",
      "effectiveGasPrice": "0x1312d00",
      "from": "0x2da2d9ccc37da7a4103c67247d51b48ffcbe2296",
      "to": "0x626ea5383e40d743dfddc94eb85d7bd6ddffe3eb",
      "contractAddress": null,
      "gasUsedForL1": "0x0",
      "l1BlockNumber": "0x945d9c",
      "timeboosted": false
    }
  ],
  "libraries": [],
  "pending": [],
  "returns": {},
  "timestamp": 1764320404,
  "chain": 421614,
  "commit": "4a121fe"
}