{
  "transactions": [
    {
      "hash": "0x0697ac2d1f311959d082e45e965463b4bc7f0716faa3c5fcc3508329339ae5be",
      "transactionType": "CALL",
      "contractName": null,
      "contractAddress": "0x86531d67812c1b61c3a7f11423e376fb522ec795",
      "function": "registerEmitter(uint16,bytes32)",
      "arguments": [
        "56",
        "0x1796d3cafa0efcb0f87be3174b0e7d6f5bbce3c1994d0cada7d85a223fe91719"
      ],
      "transaction": {
        "from": "0x2da2d9ccc37da7a4103c67247d51b48ffcbe2296",
        "to": "0x86531d67812c1b61c3a7f11423e376fb522ec795",
        "gas": "0xe381",
        "value": "0x0",
        "input": "0xbca4b0fa00000000000000000000000000000000000000000000000000000000000000381796d3cafa0efcb0f87be3174b0e7d6f5bbce3c1994d0cada7d85a223fe91719",
        "nonce": "0x2a",
        "chainId": "0x66eee"
      },
      "additionalContracts": [],
      "isFixedGasLimit": false
    }
  ],
  "receipts": [
    {
      "status": "0x1",
      "cumulativeGasUsed": "0xad86",
      "logs": [],
      "logsBloom": "0x00000000000000000000000000000000000000000000000000000000000000000000000000000000000000000000000000000000000000000000000000000000000000000000000000000000000000000000000000000000000000000000000000000000000000000000000000000000000000000000000000000000000000000000000000000000000000000000000000000000000000000000000000000000000000000000000000000000000000000000000000000000000000000000000000000000000000000000000000000000000000000000000000000000000000000000000000000000000000000000000000000000000000000000000000000000",
      "type": "0x2",
      "transactionHash": "0x0697ac2d1f311959d082e45e965463b4bc7f0716faa3c5fcc3508329339ae5be",
      "transactionIndex": "0x1",
      "blockHash": "0xd0e44e9bec0a0d3d8fc61c3d38fce378f4d898fa27ac4160ed050a330d34ccad",
      "blockNumber": "0xc1d55b8",
      "gasUsed": "0xad86",
      "effectiveGasPrice": "0x62bbe10",
      "from": "0x2da2d9ccc37da7a4103c67247d51b48ffcbe2296",
      "to": "0x86531d67812c1b61c3a7f11423e376fb522ec795",
      "contractAddress": null,
      "gasUsedForL1": "0x0",
      "l1BlockNumber": "0x8f3126",
      "timeboosted": false
    }
  ],
  "libraries": [],
  "pending": [],
  "returns": {},
  "timestamp": 1760123159,
  "chain": 421614,
  "commit": "a361912"
}