{
  "transactions": [
    {
      "hash": "0xdf30ebf17b8943010b216cf1761293385ed032d21c51a5ef663b22814af6aa0b",
      "transactionType": "CALL",
      "contractName": null,
      "contractAddress": "0x908fee62fa6a80b1e49ca66b8183a0d3e84c2001",
      "function": "registerEmitter(uint16,bytes32)",
      "arguments": [
        "56",
        "0x280c0e33e9f36209e686235c4ddfa0d714d553096afbb994254433e5cd1c151c"
      ],
      "transaction": {
        "from": "0x2da2d9ccc37da7a4103c67247d51b48ffcbe2296",
        "to": "0x908fee62fa6a80b1e49ca66b8183a0d3e84c2001",
        "gas": "0xe364",
        "value": "0x0",
        "input": "0xbca4b0fa0000000000000000000000000000000000000000000000000000000000000038280c0e33e9f36209e686235c4ddfa0d714d553096afbb994254433e5cd1c151c",
        "nonce": "0x1a",
        "chainId": "0x66eee"
      },
      "additionalContracts": [],
      "isFixedGasLimit": false
    }
  ],
  "receipts": [
    {
      "status": "0x1",
      "cumulativeGasUsed": "0x4660e",
      "logs": [],
      "logsBloom": "0x00000000000000000000000000000000000000000000000000000000000000000000000000000000000000000000000000000000000000000000000000000000000000000000000000000000000000000000000000000000000000000000000000000000000000000000000000000000000000000000000000000000000000000000000000000000000000000000000000000000000000000000000000000000000000000000000000000000000000000000000000000000000000000000000000000000000000000000000000000000000000000000000000000000000000000000000000000000000000000000000000000000000000000000000000000000",
      "type": "0x2",
      "transactionHash": "0xdf30ebf17b8943010b216cf1761293385ed032d21c51a5ef663b22814af6aa0b",
      "transactionIndex": "0x6",
      "blockHash": "0x02e56e93bec37c411af20bf20436e9b93ca6d46eb5ae0d88653a0a0620d4ca62",
      "blockNumber": "0xc15b440",
      "gasUsed": "0xad70",
      "effectiveGasPrice": "0x5f5e100",
      "from": "0x2da2d9ccc37da7a4103c67247d51b48ffcbe2296",
      "to": "0x908fee62fa6a80b1e49ca66b8183a0d3e84c2001",
      "contractAddress": null,
      "gasUsedForL1": "0x0",
      "l1BlockNumber": "0x8f0b26",
      "timeboosted": false
    }
  ],
  "libraries": [],
  "pending": [],
  "returns": {},
  "timestamp": 1759998117,
  "chain": 421614,
  "commit": "e0684f9"
}