{
  "transactions": [
    {
      "hash": "0x645f1f44cdf6b28bb0e1908f073135d6149f620b9876a60df736becef8392342",
      "transactionType": "CALL",
      "contractName": null,
      "contractAddress": "0x2a7c2c47fafc317cd9f2a39810cac37b9e9c4e70",
      "function": "registerEmitter(uint16,bytes32)",
      "arguments": [
        "56",
        "0x21ad337c2a3aa9420a941949eb5fda01a44691dbcf055c8790d0f72f39655201"
      ],
      "transaction": {
        "from": "0x2da2d9ccc37da7a4103c67247d51b48ffcbe2296",
        "to": "0x2a7c2c47fafc317cd9f2a39810cac37b9e9c4e70",
        "gas": "0xe39d",
        "value": "0x0",
        "input": "0xbca4b0fa000000000000000000000000000000000000000000000000000000000000003821ad337c2a3aa9420a941949eb5fda01a44691dbcf055c8790d0f72f39655201",
        "nonce": "0x39",
        "chainId": "0x66eee"
      },
      "additionalContracts": [],
      "isFixedGasLimit": false
    }
  ],
  "receipts": [
    {
      "status": "0x1",
      "cumulativeGasUsed": "0xad9c",
      "logs": [],
      "logsBloom": "0x00000000000000000000000000000000000000000000000000000000000000000000000000000000000000000000000000000000000000000000000000000000000000000000000000000000000000000000000000000000000000000000000000000000000000000000000000000000000000000000000000000000000000000000000000000000000000000000000000000000000000000000000000000000000000000000000000000000000000000000000000000000000000000000000000000000000000000000000000000000000000000000000000000000000000000000000000000000000000000000000000000000000000000000000000000000",
      "type": "0x2",
      "transactionHash": "0x645f1f44cdf6b28bb0e1908f073135d6149f620b9876a60df736becef8392342",
      "transactionIndex": "0x1",
      "blockHash": "0x0821541fce0828e043cf0a81b71bbf2f6c6433ffe7aed0f13fa9cba6240e05ab",
      "blockNumber": "0xc209bff",
      "gasUsed": "0xad9c",
      "effectiveGasPrice": "0x5f5e100",
      "from": "0x2da2d9ccc37da7a4103c67247d51b48ffcbe2296",
      "to": "0x2a7c2c47fafc317cd9f2a39810cac37b9e9c4e70",
      "contractAddress": null,
      "gasUsedForL1": "0x0",
      "l1BlockNumber": "0x8f41a2",
      "timeboosted": false
    }
  ],
  "libraries": [],
  "pending": [],
  "returns": {},
  "timestamp": 1760176868,
  "chain": 421614,
  "commit": "7b18d95"
}