{
  "transactions": [
    {
      "hash": "0x98fa63fa75a92d33a2efbe93b00eb5473882208031eb0862cb96f1c8908191b1",
      "transactionType": "CALL",
      "contractName": null,
      "contractAddress": "0x90dcefca3b658f0b4222f8803975ca823d8bfd51",
      "function": "registerEmitter(uint16,bytes32)",
      "arguments": [
        "56",
        "0x181e04b9cb2c00d9e09a3eef805d206bb01ff57314a4e4e9680c3311f0343dfa"
      ],
      "transaction": {
        "from": "0x2da2d9ccc37da7a4103c67247d51b48ffcbe2296",
        "to": "0x90dcefca3b658f0b4222f8803975ca823d8bfd51",
        "gas": "0xe38e",
        "value": "0x0",
        "input": "0xbca4b0fa0000000000000000000000000000000000000000000000000000000000000038181e04b9cb2c00d9e09a3eef805d206bb01ff57314a4e4e9680c3311f0343dfa",
        "nonce": "0x36",
        "chainId": "0x66eee"
      },
      "additionalContracts": [],
      "isFixedGasLimit": false
    }
  ],
  "receipts": [
    {
      "status": "0x1",
      "cumulativeGasUsed": "0x25c1a",
      "logs": [],
      "logsBloom": "0x00000000000000000000000000000000000000000000000000000000000000000000000000000000000000000000000000000000000000000000000000000000000000000000000000000000000000000000000000000000000000000000000000000000000000000000000000000000000000000000000000000000000000000000000000000000000000000000000000000000000000000000000000000000000000000000000000000000000000000000000000000000000000000000000000000000000000000000000000000000000000000000000000000000000000000000000000000000000000000000000000000000000000000000000000000000",
      "type": "0x2",
      "transactionHash": "0x98fa63fa75a92d33a2efbe93b00eb5473882208031eb0862cb96f1c8908191b1",
      "transactionIndex": "0x3",
      "blockHash": "0x0a3ec5ab8212628ba5606f95607b9a37bba84904896c0b8c64c674ecfd29fb5e",
      "blockNumber": "0xc1e2e68",
      "gasUsed": "0xad90",
      "effectiveGasPrice": "0x5f5e100",
      "from": "0x2da2d9ccc37da7a4103c67247d51b48ffcbe2296",
      "to": "0x90dcefca3b658f0b4222f8803975ca823d8bfd51",
      "contractAddress": null,
      "gasUsedForL1": "0x0",
      "l1BlockNumber": "0x8f3563",
      "timeboosted": false
    }
  ],
  "libraries": [],
  "pending": [],
  "returns": {},
  "timestamp": 1760137041,
  "chain": 421614,
  "commit": "a361912"
}