{
  "transactions": [
    {
      "hash": "0xa94fcaa1228a928a41707786c15ddf8fc7a1e0bcdc31b8222427feaa8fa0ba34",
      "transactionType": "CALL",
      "contractName": null,
      "contractAddress": "0x003ac822a3739122f15d4141f35a093450cadbdb",
      "function": "registerEmitter(uint16,bytes32)",
      "arguments": [
        "56",
        "0x1e953420708b746853e67cdf7aab30e74e24879fb15eb9a93ba3c035aa47ea4a"
      ],
      "transaction": {
        "from": "0x2da2d9ccc37da7a4103c67247d51b48ffcbe2296",
        "to": "0x003ac822a3739122f15d4141f35a093450cadbdb",
        "gas": "0xe381",
        "value": "0x0",
        "input": "0xbca4b0fa00000000000000000000000000000000000000000000000000000000000000381e953420708b746853e67cdf7aab30e74e24879fb15eb9a93ba3c035aa47ea4a",
        "nonce": "0x2d",
        "chainId": "0x66eee"
      },
      "additionalContracts": [],
      "isFixedGasLimit": false
    }
  ],
  "receipts": [
    {
      "status": "0x1",
      "cumulativeGasUsed": "0x564fc",
      "logs": [],
      "logsBloom": "0x00000000000000000000000000000000000000000000000000000000000000000000000000000000000000000000000000000000000000000000000000000000000000000000000000000000000000000000000000000000000000000000000000000000000000000000000000000000000000000000000000000000000000000000000000000000000000000000000000000000000000000000000000000000000000000000000000000000000000000000000000000000000000000000000000000000000000000000000000000000000000000000000000000000000000000000000000000000000000000000000000000000000000000000000000000000",
      "type": "0x2",
      "transactionHash": "0xa94fcaa1228a928a41707786c15ddf8fc7a1e0bcdc31b8222427feaa8fa0ba34",
      "transactionIndex": "0x5",
      "blockHash": "0xd4d575a201d3a8ae88e6ba536c64115fd2f7828f235ca26b46a126eb40346db6",
      "blockNumber": "0xc1d9ea4",
      "gasUsed": "0xad86",
      "effectiveGasPrice": "0x5f5e100",
      "from": "0x2da2d9ccc37da7a4103c67247d51b48ffcbe2296",
      "to": "0x003ac822a3739122f15d4141f35a093450cadbdb",
      "contractAddress": null,
      "gasUsedForL1": "0x0",
      "l1BlockNumber": "0x8f3297",
      "timeboosted": false
    }
  ],
  "libraries": [],
  "pending": [],
  "returns": {},
  "timestamp": 1760127831,
  "chain": 421614,
  "commit": "a361912"
}