{
  "transactions": [
    {
      "hash": "0xaa4912ea016f1259fa13d0324b6677112a568e8edddb94151b4fba8e4bf285a9",
      "transactionType": "CALL",
      "contractName": null,
      "contractAddress": "0x73e93cd5aee97d20c7ac24b34eb5efa58732e53b",
      "function": "registerEmitter(uint16,bytes32)",
      "arguments": [
        "56",
        "0x2576c4dd1ab134721907c3b4e834938580bc2fe86839fc1282c59d3e6a8eeeba"
      ],
      "transaction": {
        "from": "0x2da2d9ccc37da7a4103c67247d51b48ffcbe2296",
        "to": "0x73e93cd5aee97d20c7ac24b34eb5efa58732e53b",
        "gas": "0x8c7f",
        "value": "0x0",
        "input": "0xbca4b0fa00000000000000000000000000000000000000000000000000000000000000382576c4dd1ab134721907c3b4e834938580bc2fe86839fc1282c59d3e6a8eeeba",
        "nonce": "0x1e",
        "chainId": "0x66eee"
      },
      "additionalContracts": [],
      "isFixedGasLimit": false
    }
  ],
  "receipts": [
    {
      "status": "0x1",
      "cumulativeGasUsed": "0x6aba",
      "logs": [],
      "logsBloom": "0x00000000000000000000000000000000000000000000000000000000000000000000000000000000000000000000000000000000000000000000000000000000000000000000000000000000000000000000000000000000000000000000000000000000000000000000000000000000000000000000000000000000000000000000000000000000000000000000000000000000000000000000000000000000000000000000000000000000000000000000000000000000000000000000000000000000000000000000000000000000000000000000000000000000000000000000000000000000000000000000000000000000000000000000000000000000",
      "type": "0x2",
      "transactionHash": "0xaa4912ea016f1259fa13d0324b6677112a568e8edddb94151b4fba8e4bf285a9",
      "transactionIndex": "0x1",
      "blockHash": "0xa00f8cb27b162fdfde0a9c86d7246e4a94840e6bcf43a210b6318c37676bc9a5",
      "blockNumber": "0xc1cac3d",
      "gasUsed": "0x6aba",
      "effectiveGasPrice": "0x5f5e100",
      "from": "0x2da2d9ccc37da7a4103c67247d51b48ffcbe2296",
      "to": "0x73e93cd5aee97d20c7ac24b34eb5efa58732e53b",
      "contractAddress": null,
      "gasUsedForL1": "0x0",
      "l1BlockNumber": "0x8f2df8",
      "timeboosted": false
    }
  ],
  "libraries": [],
  "pending": [],
  "returns": {},
  "timestamp": 1760112300,
  "chain": 421614,
  "commit": "a361912"
}