{
  "transactions": [
    {
      "hash": "0x4c4bbd387ca11759a7566665fb1be47b8900877c1f6991fea4a97956f3979a72",
      "transactionType": "CALL",
      "contractName": null,
      "contractAddress": "0x18a912a8fcb792a282b0f543e81ffb0153394b19",
      "function": "registerEmitter(uint16,bytes32)",
      "arguments": [
        "56",
        "0x10b1f75d1e3b25233d394e48d865849f7401f32bad36abb0f6201307a8ff365b"
      ],
      "transaction": {
        "from": "0x2da2d9ccc37da7a4103c67247d51b48ffcbe2296",
        "to": "0x18a912a8fcb792a282b0f543e81ffb0153394b19",
        "gas": "0xe381",
        "value": "0x0",
        "input": "0xbca4b0fa000000000000000000000000000000000000000000000000000000000000003810b1f75d1e3b25233d394e48d865849f7401f32bad36abb0f6201307a8ff365b",
        "nonce": "0x30",
        "chainId": "0x66eee"
      },
      "additionalContracts": [],
      "isFixedGasLimit": false
    }
  ],
  "receipts": [
    {
      "status": "0x1",
      "cumulativeGasUsed": "0xad86",
      "logs": [],
      "logsBloom": "0x00000000000000000000000000000000000000000000000000000000000000000000000000000000000000000000000000000000000000000000000000000000000000000000000000000000000000000000000000000000000000000000000000000000000000000000000000000000000000000000000000000000000000000000000000000000000000000000000000000000000000000000000000000000000000000000000000000000000000000000000000000000000000000000000000000000000000000000000000000000000000000000000000000000000000000000000000000000000000000000000000000000000000000000000000000000",
      "type": "0x2",
      "transactionHash": "0x4c4bbd387ca11759a7566665fb1be47b8900877c1f6991fea4a97956f3979a72",
      "transactionIndex": "0x1",
      "blockHash": "0x67ac335170f304a0ce33b7cf7e7fcb8fc99d8281ede6acc383bf9d7249f05ad5",
      "blockNumber": "0xc1dc246",
      "gasUsed": "0xad86",
      "effectiveGasPrice": "0x5f5e100",
      "from": "0x2da2d9ccc37da7a4103c67247d51b48ffcbe2296",
      "to": "0x18a912a8fcb792a282b0f543e81ffb0153394b19",
      "contractAddress": null,
      "gasUsedForL1": "0x0",
      "l1BlockNumber": "0x8f334a",
      "timeboosted": false
    }
  ],
  "libraries": [],
  "pending": [],
  "returns": {},
  "timestamp": 1760130114,
  "chain": 421614,
  "commit": "a361912"
}