{
  "transactions": [
    {
      "hash": "0x6fb7b5fe42754f5d8c2582ac4b634f90220bab82a6ab280b202c55f37ba2745c",
      "transactionType": "CALL",
      "contractName": null,
      "contractAddress": "0xca536a1655365f8c9f27b313ac2b675f6171c994",
      "function": "registerEmitter(uint16,bytes32)",
      "arguments": [
        "56",
        "0x03484b749571a49832bdfc6ad21af3734cfcb55ed436e548dfcc337a76334dbb"
      ],
      "transaction": {
        "from": "0x2da2d9ccc37da7a4103c67247d51b48ffcbe2296",
        "to": "0xca536a1655365f8c9f27b313ac2b675f6171c994",
        "gas": "0xe381",
        "value": "0x0",
        "input": "0xbca4b0fa000000000000000000000000000000000000000000000000000000000000003803484b749571a49832bdfc6ad21af3734cfcb55ed436e548dfcc337a76334dbb",
        "nonce": "0x24",
        "chainId": "0x66eee"
      },
      "additionalContracts": [],
      "isFixedGasLimit": false
    }
  ],
  "receipts": [
    {
      "status": "0x1",
      "cumulativeGasUsed": "0xad86",
      "logs": [],
      "logsBloom": "0x00000000000000000000000000000000000000000000000000000000000000000000000000000000000000000000000000000000000000000000000000000000000000000000000000000000000000000000000000000000000000000000000000000000000000000000000000000000000000000000000000000000000000000000000000000000000000000000000000000000000000000000000000000000000000000000000000000000000000000000000000000000000000000000000000000000000000000000000000000000000000000000000000000000000000000000000000000000000000000000000000000000000000000000000000000000",
      "type": "0x2",
      "transactionHash": "0x6fb7b5fe42754f5d8c2582ac4b634f90220bab82a6ab280b202c55f37ba2745c",
      "transactionIndex": "0x1",
      "blockHash": "0x650d26f68c88734c65f39f0e986d6caedf7dd1e501f0043fcc3a7a39cdb09bb7",
      "blockNumber": "0xc1cee35",
      "gasUsed": "0xad86",
      "effectiveGasPrice": "0x5f5e100",
      "from": "0x2da2d9ccc37da7a4103c67247d51b48ffcbe2296",
      "to": "0xca536a1655365f8c9f27b313ac2b675f6171c994",
      "contractAddress": null,
      "gasUsedForL1": "0x0",
      "l1BlockNumber": "0x8f2f3f",
      "timeboosted": false
    }
  ],
  "libraries": [],
  "pending": [],
  "returns": {},
  "timestamp": 1760116525,
  "chain": 421614,
  "commit": "a361912"
}