{
  "transactions": [
    {
      "hash": "0xde34e45a4ac14b02e5f1cf82a32081bc84861ec3862d0c4103c3d23f002f3a38",
      "transactionType": "CALL",
      "contractName": null,
      "contractAddress": "0x73e93cd5aee97d20c7ac24b34eb5efa58732e53b",
      "function": "registerEmitter(uint16,bytes32)",
      "arguments": [
        "56",
        "0x280c0e33e9f36209e686235c4ddfa0d714d553096afbb994254433e5cd1c151c"
      ],
      "transaction": {
        "from": "0x2da2d9ccc37da7a4103c67247d51b48ffcbe2296",
        "to": "0x73e93cd5aee97d20c7ac24b34eb5efa58732e53b",
        "gas": "0xe381",
        "value": "0x0",
        "input": "0xbca4b0fa0000000000000000000000000000000000000000000000000000000000000038280c0e33e9f36209e686235c4ddfa0d714d553096afbb994254433e5cd1c151c",
        "nonce": "0x1d",
        "chainId": "0x66eee"
      },
      "additionalContracts": [],
      "isFixedGasLimit": false
    }
  ],
  "receipts": [
    {
      "status": "0x1",
      "cumulativeGasUsed": "0x100796",
      "logs": [],
      "logsBloom": "0x00000000000000000000000000000000000000000000000000000000000000000000000000000000000000000000000000000000000000000000000000000000000000000000000000000000000000000000000000000000000000000000000000000000000000000000000000000000000000000000000000000000000000000000000000000000000000000000000000000000000000000000000000000000000000000000000000000000000000000000000000000000000000000000000000000000000000000000000000000000000000000000000000000000000000000000000000000000000000000000000000000000000000000000000000000000",
      "type": "0x2",
      "transactionHash": "0xde34e45a4ac14b02e5f1cf82a32081bc84861ec3862d0c4103c3d23f002f3a38",
      "transactionIndex": "0x3",
      "blockHash": "0xbe2de2119034668cbfe01ac39f9d381b5a534a59b188a1ae6e31fff3b4b58503",
      "blockNumber": "0xc1c9994",
      "gasUsed": "0xad86",
      "effectiveGasPrice": "0x5f5e100",
      "from": "0x2da2d9ccc37da7a4103c67247d51b48ffcbe2296",
      "to": "0x73e93cd5aee97d20c7ac24b34eb5efa58732e53b",
      "contractAddress": null,
      "gasUsedForL1": "0x0",
      "l1BlockNumber": "0x8f2d9c",
      "timeboosted": false
    }
  ],
  "libraries": [],
  "pending": [],
  "returns": {},
  "timestamp": 1760111102,
  "chain": 421614,
  "commit": "a361912"
}