{
  "transactions": [
    {
      "hash": "0x59ab0e35ed15444a27dd85ab66295aa126daa6473ee7be142ef4a19d39d1c914",
      "transactionType": "CALL",
      "contractName": null,
      "contractAddress": "0x371cfd96c47c560b9d1d51ef4a977596fd93b3f3",
      "function": "registerEmitter(uint16,bytes32)",
      "arguments": [
        "56",
        "0x0d74cb1575016bd61c214c33591e38596a1e002e0f1a0f12505f128799f39752"
      ],
      "transaction": {
        "from": "0x2da2d9ccc37da7a4103c67247d51b48ffcbe2296",
        "to": "0x371cfd96c47c560b9d1d51ef4a977596fd93b3f3",
        "gas": "0xe371",
        "value": "0x0",
        "input": "0xbca4b0fa00000000000000000000000000000000000000000000000000000000000000380d74cb1575016bd61c214c33591e38596a1e002e0f1a0f12505f128799f39752",
        "nonce": "0x21",
        "chainId": "0x66eee"
      },
      "additionalContracts": [],
      "isFixedGasLimit": false
    }
  ],
  "receipts": [
    {
      "status": "0x1",
      "cumulativeGasUsed": "0x15c85",
      "logs": [],
      "logsBloom": "0x00000000000000000000000000000000000000000000000000000000000000000000000000000000000000000000000000000000000000000000000000000000000000000000000000000000000000000000000000000000000000000000000000000000000000000000000000000000000000000000000000000000000000000000000000000000000000000000000000000000000000000000000000000000000000000000000000000000000000000000000000000000000000000000000000000000000000000000000000000000000000000000000000000000000000000000000000000000000000000000000000000000000000000000000000000000",
      "type": "0x2",
      "transactionHash": "0x59ab0e35ed15444a27dd85ab66295aa126daa6473ee7be142ef4a19d39d1c914",
      "transactionIndex": "0x2",
      "blockHash": "0xc1e61e7cbf47cc82801c09c146bc7667315b8203643e6f338782baa744459673",
      "blockNumber": "0xc1ccd60",
      "gasUsed": "0xad7a",
      "effectiveGasPrice": "0x5f5e100",
      "from": "0x2da2d9ccc37da7a4103c67247d51b48ffcbe2296",
      "to": "0x371cfd96c47c560b9d1d51ef4a977596fd93b3f3",
      "contractAddress": null,
      "gasUsedForL1": "0x0",
      "l1BlockNumber": "0x8f2e97",
      "timeboosted": false
    }
  ],
  "libraries": [],
  "pending": [],
  "returns": {},
  "timestamp": 1760114423,
  "chain": 421614,
  "commit": "a361912"
}