{
  "transactions": [
    {
      "hash": "0x103ace7a93cc0f1294f1bfa158db82b8e3a052ba063d1b01e38e572a21f06dac",
      "transactionType": "CALL",
      "contractName": null,
      "contractAddress": "0xf01c05ff9f34d57ae2358b9319b86f59cfcc1558",
      "function": "registerEmitter(uint16,bytes32)",
      "arguments": [
        "56",
        "0x2ab549005c93ed0b6ab95d47de17d6de8b4d9ba9d68b74fb912aafd89a244e98"
      ],
      "transaction": {
        "from": "0x2da2d9ccc37da7a4103c67247d51b48ffcbe2296",
        "to": "0xf01c05ff9f34d57ae2358b9319b86f59cfcc1558",
        "gas": "0xe371",
        "value": "0x0",
        "input": "0xbca4b0fa00000000000000000000000000000000000000000000000000000000000000382ab549005c93ed0b6ab95d47de17d6de8b4d9ba9d68b74fb912aafd89a244e98",
        "nonce": "0x27",
        "chainId": "0x66eee"
      },
      "additionalContracts": [],
      "isFixedGasLimit": false
    }
  ],
  "receipts": [
    {
      "status": "0x1",
      "cumulativeGasUsed": "0x1a7b9",
      "logs": [],
      "logsBloom": "0x00000000000000000000000000000000000000000000000000000000000000000000000000000000000000000000000000000000000000000000000000000000000000000000000000000000000000000000000000000000000000000000000000000000000000000000000000000000000000000000000000000000000000000000000000000000000000000000000000000000000000000000000000000000000000000000000000000000000000000000000000000000000000000000000000000000000000000000000000000000000000000000000000000000000000000000000000000000000000000000000000000000000000000000000000000000",
      "type": "0x2",
      "transactionHash": "0x103ace7a93cc0f1294f1bfa158db82b8e3a052ba063d1b01e38e572a21f06dac",
      "transactionIndex": "0x2",
      "blockHash": "0xb52149d67aa2cb9c983682f902c6e507c90d19b336bd15bda9c578001f2a90ac",
      "blockNumber": "0xc1d2770",
      "gasUsed": "0xad7a",
      "effectiveGasPrice": "0x5f5e100",
      "from": "0x2da2d9ccc37da7a4103c67247d51b48ffcbe2296",
      "to": "0xf01c05ff9f34d57ae2358b9319b86f59cfcc1558",
      "contractAddress": null,
      "gasUsedForL1": "0x0",
      "l1BlockNumber": "0x8f304e",
      "timeboosted": false
    }
  ],
  "libraries": [],
  "pending": [],
  "returns": {},
  "timestamp": 1760120191,
  "chain": 421614,
  "commit": "a361912"
}