{
  "transactions": [
    {
      "hash": "0x57d6a2e667954f1c27e2b677b69ac7deb6e079466569c1d76d03ae2b744e23c3",
      "transactionType": "CALL",
      "contractName": null,
      "contractAddress": "0xff3c2fdba11bdd0da75f3e1ea38826ac53404135",
      "function": "registerEmitter(uint16,bytes32)",
      "arguments": [
        "56",
        "0x280c0e33e9f36209e686235c4ddfa0d714d553096afbb994254433e5cd1c151c"
      ],
      "transaction": {
        "from": "0x2da2d9ccc37da7a4103c67247d51b48ffcbe2296",
        "to": "0xff3c2fdba11bdd0da75f3e1ea38826ac53404135",
        "gas": "0xe364",
        "value": "0x0",
        "input": "0xbca4b0fa0000000000000000000000000000000000000000000000000000000000000038280c0e33e9f36209e686235c4ddfa0d714d553096afbb994254433e5cd1c151c",
        "nonce": "0x14",
        "chainId": "0x66eee"
      },
      "additionalContracts": [],
      "isFixedGasLimit": false
    }
  ],
  "receipts": [
    {
      "status": "0x1",
      "cumulativeGasUsed": "0xad70",
      "logs": [],
      "logsBloom": "0x00000000000000000000000000000000000000000000000000000000000000000000000000000000000000000000000000000000000000000000000000000000000000000000000000000000000000000000000000000000000000000000000000000000000000000000000000000000000000000000000000000000000000000000000000000000000000000000000000000000000000000000000000000000000000000000000000000000000000000000000000000000000000000000000000000000000000000000000000000000000000000000000000000000000000000000000000000000000000000000000000000000000000000000000000000000",
      "type": "0x2",
      "transactionHash": "0x57d6a2e667954f1c27e2b677b69ac7deb6e079466569c1d76d03ae2b744e23c3",
      "transactionIndex": "0x1",
      "blockHash": "0x6a191f827858c8fd4674ee381725ddd0308fe780adf40735174e9985939ddf48",
      "blockNumber": "0xbe56ae3",
      "gasUsed": "0xad70",
      "effectiveGasPrice": "0x63a8b20",
      "from": "0x2da2d9ccc37da7a4103c67247d51b48ffcbe2296",
      "to": "0xff3c2fdba11bdd0da75f3e1ea38826ac53404135",
      "contractAddress": null,
      "gasUsedForL1": "0x0",
      "l1BlockNumber": "0x8e0ff1",
      "timeboosted": false
    }
  ],
  "libraries": [],
  "pending": [],
  "returns": {},
  "timestamp": 1759207095,
  "chain": 421614,
  "commit": "aede73d"
}